{
  "contractName": "ImageUpload",
  "abi": [
    {
      "inputs": [],
      "name": "isCreated",
      "outputs": [
        {
          "internalType": "bool",
          "name": "",
          "type": "bool"
        }
      ],
      "stateMutability": "view",
      "type": "function",
      "constant": true
    },
    {
      "inputs": [
        {
          "internalType": "string",
          "name": "_name",
          "type": "string"
        }
      ],
      "name": "create",
      "outputs": [],
      "stateMutability": "nonpayable",
      "type": "function"
    },
    {
      "inputs": [],
      "name": "getImage_Hashes",
      "outputs": [
        {
          "internalType": "string[]",
          "name": "",
          "type": "string[]"
        }
      ],
      "stateMutability": "view",
      "type": "function",
      "constant": true
    },
    {
      "inputs": [
        {
          "internalType": "string",
          "name": "_hash",
          "type": "string"
        }
      ],
      "name": "Push_toList",
      "outputs": [],
      "stateMutability": "nonpayable",
      "type": "function"
    }
  ],
  "bytecode": "0x608060405234801561001057600080fd5b50610872806100206000396000f3fe608060405234801561001057600080fd5b506004361061004c5760003560e01c80633e3c804c14610051578063861743961461006d578063b6a46b3b1461008b578063cbc4670e146100a7575b600080fd5b61006b600480360381019061006691906104c6565b6100c5565b005b61007561019a565b60405161008291906105fa565b60405180910390f35b6100a560048036038101906100a091906104c6565b6101f0565b005b6100af6102a3565b6040516100bc91906105d8565b60405180910390f35b6000803373ffffffffffffffffffffffffffffffffffffffff1673ffffffffffffffffffffffffffffffffffffffff1681526020019081526020016000206002018190806001815401808255809150506001900390600052602060002001600090919091909150908051906020019061013f9291906103bb565b506000803373ffffffffffffffffffffffffffffffffffffffff1673ffffffffffffffffffffffffffffffffffffffff168152602001908152602001600020600101600081548092919061019290610755565b919050555050565b60008060003373ffffffffffffffffffffffffffffffffffffffff1673ffffffffffffffffffffffffffffffffffffffff16815260200190815260200160002060030160009054906101000a900460ff16905090565b806000803373ffffffffffffffffffffffffffffffffffffffff1673ffffffffffffffffffffffffffffffffffffffff16815260200190815260200160002060000190805190602001906102459291906103bb565b5060016000803373ffffffffffffffffffffffffffffffffffffffff1673ffffffffffffffffffffffffffffffffffffffff16815260200190815260200160002060030160006101000a81548160ff02191690831515021790555050565b60606000803373ffffffffffffffffffffffffffffffffffffffff1673ffffffffffffffffffffffffffffffffffffffff168152602001908152602001600020600201805480602002602001604051908101604052809291908181526020016000905b828210156103b257838290600052602060002001805461032590610723565b80601f016020809104026020016040519081016040528092919081815260200182805461035190610723565b801561039e5780601f106103735761010080835404028352916020019161039e565b820191906000526020600020905b81548152906001019060200180831161038157829003601f168201915b505050505081526020019060010190610306565b50505050905090565b8280546103c790610723565b90600052602060002090601f0160209004810192826103e95760008555610430565b82601f1061040257805160ff1916838001178555610430565b82800160010185558215610430579182015b8281111561042f578251825591602001919060010190610414565b5b50905061043d9190610441565b5090565b5b8082111561045a576000816000905550600101610442565b5090565b600061047161046c84610646565b610615565b90508281526020810184848401111561048957600080fd5b6104948482856106e1565b509392505050565b600082601f8301126104ad57600080fd5b81356104bd84826020860161045e565b91505092915050565b6000602082840312156104d857600080fd5b600082013567ffffffffffffffff8111156104f257600080fd5b6104fe8482850161049c565b91505092915050565b6000610513838361059f565b905092915050565b600061052682610686565b61053081856106a9565b93508360208202850161054285610676565b8060005b8581101561057e578484038952815161055f8582610507565b945061056a8361069c565b925060208a01995050600181019050610546565b50829750879550505050505092915050565b610599816106cb565b82525050565b60006105aa82610691565b6105b481856106ba565b93506105c48185602086016106f0565b6105cd8161082b565b840191505092915050565b600060208201905081810360008301526105f2818461051b565b905092915050565b600060208201905061060f6000830184610590565b92915050565b6000604051905081810181811067ffffffffffffffff8211171561063c5761063b6107fc565b5b8060405250919050565b600067ffffffffffffffff821115610661576106606107fc565b5b601f19601f8301169050602081019050919050565b6000819050602082019050919050565b600081519050919050565b600081519050919050565b6000602082019050919050565b600082825260208201905092915050565b600082825260208201905092915050565b60008115159050919050565b6000819050919050565b82818337600083830152505050565b60005b8381101561070e5780820151818401526020810190506106f3565b8381111561071d576000848401525b50505050565b6000600282049050600182168061073b57607f821691505b6020821081141561074f5761074e6107cd565b5b50919050565b6000610760826106d7565b91507fffffffffffffffffffffffffffffffffffffffffffffffffffffffffffffffff8214156107935761079261079e565b5b600182019050919050565b7f4e487b7100000000000000000000000000000000000000000000000000000000600052601160045260246000fd5b7f4e487b7100000000000000000000000000000000000000000000000000000000600052602260045260246000fd5b7f4e487b7100000000000000000000000000000000000000000000000000000000600052604160045260246000fd5b6000601f19601f830116905091905056fea2646970667358221220d0f804e1158ef7cb9a28a960ebff680ede8ad7cb508321204d005f50643f578564736f6c63430008000033",
  "immutableReferences": {},
  "source": "// SPDX-License-Identifier: MIT\npragma solidity ^0.8.0;\n\ncontract ImageUpload {\n    struct User_data {\n        string name;\n        uint256 image_count;\n        string[] hashes;\n        bool isCreated;\n    }\n\n    mapping(address => User_data) Accounts;\n\n    function isCreated() public view returns (bool) {\n        return Accounts[msg.sender].isCreated;\n    }\n\n    function create(string memory _name) public {\n        Accounts[msg.sender].name = _name;\n        Accounts[msg.sender].isCreated = true;\n    }\n\n    function getImage_Hashes() public view returns (string[] memory) {\n        return Accounts[msg.sender].hashes;\n    }\n\n    function Push_toList(string memory _hash) public {\n        Accounts[msg.sender].hashes.push(_hash);\n        Accounts[msg.sender].image_count++;\n    }\n}\n",
  "sourcePath": "D:\\Blockchain\\Truffle\\Image_upload_ipfs\\contracts\\ImageUpload.sol",
  "compiler": {
    "name": "solc",
    "version": "0.8.0+commit.c7dfd78e.Emscripten.clang"
  },
  "schemaVersion": "3.4.7",
  "updatedAt": "2022-06-09T04:33:35.314Z",
  "networkType": "ethereum",
  "devdoc": {
    "kind": "dev",
    "methods": {},
    "version": 1
  },
  "userdoc": {
    "kind": "user",
    "methods": {},
    "version": 1
  }
}